:020000040000FA
:0400000061EF00F0BC
:06000800428205EF05F045
:100018004280D8CF2BF0E8CF2CF0E0CF2DF0F3CFF3
:100028002EF0F4CF2FF0F2A41CEF00F01EEF00F03A
:100038004BEF00F03F4A402A3EC020F0216A010EF3
:10004800236EF40E226E88EC06F020503F5C21509F
:100058004058D8A032EF00F034EF00F04AEF00F03B
:100068003D50D8B43AEF00F03CEF00F042EF00F01A
:100078003C5042EC04F03C6E46EF00F03C50DCECA7
:1000880003F03C6E000E406E000E3F6EF294F2A03C
:1000980050EF00F052EF00F055EF00F0010E3D1A5E
:1000A800F2902FC0F4FF2EC0F3FF2DC0E0FF2CC04C
:0E00B800E8FF2BC0D8FF42901000EDEF05F0DE
:10040000004661696C656420746F20636F6E666975
:10041000677572652054696D65722030210D004C3E
:1004200045443130206973204F4E0D004C45443116
:10043000206973204F4E0D004C45443220697320D3
:100440004F4E0D004C454433206973204F4E0D0034
:100450004C454434206973204F4E0D004C454435C3
:10046000206973204F4E0D004C454436206973209F
:100470004F4E0D004C454437206973204F4E0D0000
:100480004C454438206973204F4E0D004C4544398B
:10049000206973204F4E0D0073706565643D000048
:1004A0004150D8B456EF02F058EF02F0F4EF02F0EA
:1004B00038C00CF039C00DF0980E0E6E040E0F6EA1
:1004C000A5EC04F00CC015F00DC016F020EE07F0FE
:1004D0001550D9261650DA220D0EDE18D8B473EF57
:1004E00002F075EF02F0A3EF02F020EE08F01550D5
:1004F000D9261650DA220D0EDE18D8B482EF02F09B
:1005000084EF02F0A3EF02F020EE08F01550D92698
:100510001650DA22DF50126E20EE07F01550D92661
:100520001650DA22DF500A0DF3CF13F020EE06F05A
:100530001550D9261650DA22DF50640DF3501324DB
:100540001224300F146E20EE07F01550D9261650E5
:10055000DA220D0EDE18D8B4B0EF02F0B2EF02F0DE
:10056000D7EF02F020EE08F01550D9261650DA2207
:100570000D0EDE18D8A4BFEF02F0C1EF02F0D7EFE6
:1005800002F020EE07F01550D9261650DA22DF507F
:100590000A0DF3CF12F020EE06F01550D9261650B2
:1005A000DA22DF500A0DF3501224400F146E20EEB1
:1005B00007F01550D9261650DA220D0EDE18D8A4F1
:1005C000E4EF02F0E6EF02F0EFEF02F020EE06F0CB
:1005D0001550D9261650DA22DF50D00F146E000EB7
:1005E000416E1450F5EF02F0000E1200346E24EF4D
:1005F00003F0D594D592D59059EF03F0D594D592C8
:10060000D58059EF03F0D594D582D59059EF03F0FA
:10061000D594D582D58059EF03F0D584D592D59065
:1006200059EF03F0D584D592D58059EF03F0D584E6
:10063000D582D59059EF03F0D584D582D58059EF76
:1006400003F0000E70EF03F030C032F031C033F031
:100650003350000AD8B433EF03F0010AD8B452EF94
:1006600003F021EF03F03250020AD8B4F9EF02F0A0
:10067000060AD8B4FEEF02F00C0AD8B403EF03F078
:10068000180AD8B408EF03F0300AD8B40DEF03F01D
:10069000600AD8B412EF03F0C00AD8B417EF03F021
:1006A00021EF03F03250000AD8B41CEF03F021EF21
:1006B00003F0080E3418D8A460EF03F062EF03F0E3
:1006C00065EF03F0D58C6FEF03F0100E3418D8A44B
:1006D0006CEF03F06EEF03F021EF03F0D59C010EF9
:1006E000120001C008F002C009F003C00AF004C003
:1006F0000BF00506D8A00606052806E10628D8A4B2
:1007000084EF03F086EF03F093EF03F0000E026E28
:10071000000E016EDBEF03F0084A092A0A4A0B2A91
:100720000506D8A0060608C0D9FF09C0DAFFDF50C9
:10073000D8B49DEF03F09FEF03F0CAEF03F00AC0B7
:10074000F6FF0BC0F7FF0800F5500009D8B4ABEF77
:1007500003F0ADEF03F0CAEF03F005500610D8B474
:10076000B4EF03F0B6EF03F0CAEF03F008C0D9FF0F
:1007700009C0DAFFDF50076E0AC0F6FF0BC0F7FFB3
:100780000800F5500718D8B4C8EF03F0CAEF03F01B
:100790008CEF03F008C0D9FF09C0DAFFDF50076E05
:1007A0000AC0F6FF0BC0F7FF0800F550075C016EAA
:1007B000026AD8A0020612002A6E0CEF04F08090A4
:1007C00081880A0E41EF04F0809280802A0441EF74
:1007D00004F080948082E6EF03F080968084E6EF58
:1007E00003F0809A8086E6EF03F08190808AE6EF3E
:1007F00003F081928180E6EF03F081948182E6EF3D
:1008000003F081968184E6EF03F081988186E6EF1C
:1008100003F0010E41EF04F02A50286E296A295096
:10082000000AD8B416EF04F009EF04F02850010ACA
:10083000D8B4DFEF03F0030AD8B4E4EF03F0010A01
:10084000D8B4E9EF03F0070AD8B4EDEF03F0010ADA
:10085000D8B4F1EF03F0030AD8B4F5EF03F0010ABE
:10086000D8B4F9EF03F00F0AD8B4FDEF03F0010A92
:10087000D8B401EF04F0030AD8B405EF04F009EF8F
:1008800004F012002A6E6FEF04F0809080822A2814
:10089000A4EF04F08092808447EF04F08094808677
:1008A00047EF04F08096808A47EF04F0809A8180B9
:1008B00047EF04F08190818247EF04F081928184B8
:1008C00047EF04F08194818647EF04F08196818898
:1008D00047EF04F081988080010EA4EF04F02A50C5
:1008E000286E296A2950000AD8B479EF04F06CEF19
:1008F00004F02850010AD8B445EF04F0030AD8B434
:100900004AEF04F0010AD8B44EEF04F0070AD8B455
:1009100052EF04F0010AD8B456EF04F0030AD8B439
:100920005AEF04F0010AD8B45EEF04F00F0AD8B40D
:1009300062EF04F0010AD8B466EF04F0030AD8B4F9
:100940006AEF04F06CEF04F012000E500F10D8B4F0
:10095000ACEF04F0AEEF04F000EF05F00EC001F0D4
:100960000FC002F06BEC06F001C010F002C011F0F5
:10097000EBEF04F00CC001F00DC002F00EC003F06C
:100980000FC004F010C005F011C006F071EC03F0C8
:1009900001500210D8A4CFEF04F0D1EF04F0D7EF4C
:1009A00004F00CC00CF00DC00DF004EF05F0010ECA
:1009B0000C24016E000E0D20026E0EC0F6FF0FC05B
:1009C000F7FF0800F550036E046AA2EC05F001C0C1
:1009D0000CF002C00DF00C500D10D8B4F2EF04F082
:1009E000F4EF04F000EF05F00CC0D9FF0DC0DAFF02
:1009F000DF50D8A4FEEF04F000EF05F0BAEF04F0EA
:100A0000000E0C6E000E0D6E1200D9CF17F0DACF6B
:100A100018F0F3CF19F0F4CF1AF0F6CF1BF0F7CFA0
:100A20001CF0F8CF1DF0F5CF1EF09EA81AEF05F0D0
:100A30001CEF05F026EF05F03AC001F03BC002F0D4
:100A4000400E4FEC05F0FFEC06F09E989EAA2BEFAF
:100A500005F02DEF05F03DEF05F04DEC06F050EC04
:100A600002F01F6E1F50D8B438EF05F03AEF05F0D2
:100A70003CEF05F01FC03EF09E9A1EC0F5FF1DC062
:100A8000F8FF1CC0F7FF1BC0F6FF1AC0F4FF19C027
:100A9000F3FF18C0DAFF17C0D9FF42921100066EAB
:100AA000000E086E000E076E67EF05F00750012478
:100AB000D96E08500220DA6EDF50AD6EACA263EF43
:100AC00005F065EF05F05EEF05F0074A082A0650CD
:100AD000036E046A0350075C0850800A056E0450D8
:100AE000800A0558D8A077EF05F079EF05F056EFAA
:100AF00005F01200000EACEC06F0010EACEC06F0B6
:100B0000020EACEC06F0030EACEC06F0050EACECFD
:100B100006F0000E9BEC06F0010E9BEC06F0020EB8
:100B20009BEC06F0030E9BEC06F0040E9BEC06F02B
:100B3000050EBDEC06F0060E9BEC06F0070E9BECD6
:100B400006F0120001C0D9FF02C0DAFF0350DE1820
:100B5000D8A4ADEF05F0AFEF05F0B5EF05F001C09B
:100B600001F002C002F0C7EF05F001C0D9FF02C0DA
:100B7000DAFF014A022ADF50D8A4C1EF05F0C3EF23
:100B800005F0A2EF05F0000E016E000E026E1200DD
:100B9000000EC26EC168F4EC06F0010E316E000E5C
:100BA000306E100EF6EC02F00009D8B4DAEF05F062
:100BB000DCEF05F0E8EF05F03AC030F03BC031F073
:100BC000010E326E040E336E0DEC06F0F9EC06F0F9
:100BD000E7EC06F0DBEC06F01200E00EF66E0D0E10
:100BE000F76E000EF86E00EE38F010EE07F0090018
:100BF000F5CFEEFFE550E150FAE100EE80F0800E17
:100C0000EE6AE806FDE1416A406A3F6A429042921C
:100C1000000EF86E0001CDEF06F032C034F033C0A4
:100C200035F030C036F031C037F034C0F6FF35C093
:100C3000F7FF344A352A36C0D9FF37C0DAFF364AC3
:100C4000372A0800F5CFDFFFDF50D8A42AEF06F0DF
:100C50002CEF06F015EF06F0120022C024F023C09E
:100C600025F020C026F021C027F024C0F6FF25C0C3
:100C7000F7FF244A252A26C0D9FF27C0DAFF264AD3
:100C8000272A0800F5CFDFFFDF50D8A44AEF06F08F
:100C90004CEF06F035EF06F0120038C0D9FF39C02E
:100CA000DAFFAECFDFFF38C0D9FF39C0DAFF0A0E56
:100CB000DE18D8B45EEF06F060EF06F064EF06F0E1
:100CC000384A392A6AEF06F0800E386E000E396E07
:100CD000010E416E120001C003F002C004F073EF78
:100CE00006F0014A022A01C0F6FF02C0F7FF080021
:100CF000F5500009D8A47FEF06F081EF06F071EF00
:100D000006F00350015C016E04500258026E12009E
:100D100020502202F3CF24F0F4CF25F020502302FC
:100D2000F350252621502202F350252624C020F01E
:100D300025C021F01200326E32C030F0010E316E4B
:100D4000302AA5EF06F0D8903136302EA3EF06F00A
:100D50003150FF0A93161200326E32C030F0010E8D
:100D6000316E302AB6EF06F0D8903136302EB4EF1F
:100D700006F03150FF0A92161200326E32C030F087
:100D8000010E316E302AC7EF06F0D8903136302E82
:100D9000C5EF06F0315093121200C8EC05F07AEC62
:100DA00005F0FBEC06F0F7EC06F080800400D6EFCF
:100DB00006F061EF00F0D08EF28EF28C9D889D8A55
:100DC000F2869F8A9F88F194F190F28A1200AC9883
:100DD000AB8EAC94B8960F0EAF6E000EB06E1200D4
:070DE0008000C00001010AC0
:100DE800020ED31A1200D58E1200AC8A1200AB88FC
:0A0DF8001200AC8A1200AC9A12003F
:067FF800A1F4C4FFFFF13B
:00000001FF
